:0C00000035C1FECFFDCFFCCFEEC4FACF1F
:10000C00F9CFF8CFF7CF96C4F5CF59C1F3CF7CC158
:10001C00F1CFF0CFEFCFEECFEDCF0E0E0E0E0E0ECA
:10002C000E0E1027E80364000A0001000010000106
:10003C00100001000000208C0000000004004900AA
:10004C0020202020202020202020202020202020A4
:10005C0000504320446973436F6E6E656374696E20
:10006C00670020504320436F6E6E656374696E6742
:10007C0020200020302E35732000202020317320CA
:10008C00002020203273200020467265652000522B
:10009C00756E696E672E2E2E2000204D61782056CD
:1000AC00616C75653A004261756420526174653A01
:1000BC0020353736303000202044656C61793A2089
:1000CC00302E35207320202000202044656C61796F
:1000DC003A20312073202020202000202044656C01
:1000EC0061793A20322073202020202000202044E7
:1000FC00656C61793A2046726565202020200020CD
:10010C0020436F72726563743A004E6F6973653A7F
:10011C002000644200284C6174636829004E4F49EA
:10012C005345204C4556454C004D45544552004CCA
:10013C0069656D204E677579656E000080C00100A1
:10014C0002004000080004004200010055034A0070
:10015C00110060014C00110071015D001100820161
:10016C004C00110093014C001100A4016E00110011
:10017C00B5014C001100C6014C001000D7014D0018
:10018C000F00E7014E000E00F6014F000D000402B7
:10019C0050000C00110251000B001D0252000A000D
:1001AC002802530009003202540008003B0255009B
:1001BC0007004302560006004A0257000500500291
:1001CC005800040055025900030059025A0002005D
:1001DC005C025B0007005E027F0007006502860080
:1001EC0007006C028D000700730294000B007A026A
:1001FC009B000C008502A600020091025B0011001E
:10020C009302B2001200A402C3001200B602D50081
:10021C001200C802E7001200DA02F9000B00EC022F
:10022C000B010300F7025A000800FA021601030042
:10023C0002031E010A000503530008000F032101ED
:10024C000400170359000C001B03290106002703A7
:10025C0035010C002D033B0102006B03480100002B
:10026C00F894EE27ECBBF1E0FBBFEBBFE5BFF8E188
:10027C00F1BDE1BD8DE0A2E0BB27ED938A95E9F7D6
:10028C0080E094E0A0E6ED930197E9F7EAE4F1E071
:10029C0085919591009761F0A591B5910590159078
:1002AC00BF01F00105900D920197E1F7FB01F0CF32
:1002BC00EFE5EDBFE4E0EEBFC0E6D1E03AC43BD5DC
:1002CC001A931BB14CB0E12FEC71E1F4E0915E0399
:1002DC00F0E0EA5AFC4F4082A0915E03AF5FA0931E
:1002EC005E03A83019F4E0E0E0935E03A0915F0395
:1002FC00AF5FA0935F03A83029F4E0E0E0935F03C5
:10030C00689426F8199119C016D51BD5E030A9F0C0
:10031C0018D5E150E0936A03E0916903F0E0E05AEC
:10032C00FC4FE081ECB9A0916903AF5FA093690326
:10033C00A83019F4E0E0E0936903E991EFBFF9917B
:10034C00E991A9911895AA93A0916A03A83011F488
:10035C00F894FACFF6D4E03011F45D9916C0E09120
:10036C006803F0E0E05AFC4FA881A083A0916803D9
:10037C00AF5FA0936803A83019F4E0E0E093680342
:10038C00E0D4EF5FE0936A0302C0E881ECB9AAE025
:10039C00DBD47894CEC4AA93E881E7B98BE18A9533
:1003AC00F1F7369A349BFECF349AE4B1F5B1C1C45F
:1003BC00E2E6E41571F4CAD4A0E6B1E081D4C6D467
:1003CC00A1E7B1E07DD4ACEDB5E0C4D4A2E8B1E0D6
:1003DC0010C0E1E6E41571F4B9D4A3E9B1E070D42E
:1003EC00B5D4A4EAB1E06CD4A0EDB7E0B3D4A5EBDE
:1003FC00B1E066D40895B2D4119720F4A6ECB1E024
:10040C005FD402C1B0D4119710F0B0D408F005C07D
:10041C00B3D4A7EDB1E054D4F7C0A8D410F0AED447
:10042C0008F00BC0B3D4B5D4B7D418F0A5D4B7D456
:10043C00FACFA7EEB1E044D4E7C0A0D410F0B3D407
:10044C0008F00DC0A3D4E2E0F0E0A6D418F094D4E8
:10045C00A6D4F9CF91D4A6EFB1E032D4D5C0A3D4B1
:10046C0010F0A9D408F00CC091D4E3E0F0E094D4DF
:10047C0018F082D494D4F9CFA4E0B2E021D4C4C053
:10048C009AD410F0A0D408F00BC080D4A4D484D497
:10049C0018F072D484D4FACFA1E1B2E011D4B4C074
:1004AC0092D410F09BD408F00CC070D4E5E0F0E0CE
:1004BC0073D418F061D473D4F9CFADE1B2E000D4A9
:1004CC00A3C08CD410F092D408F00CC05FD4E6E03A
:1004DC00F0E062D418F050D462D4F9CFA8E2B2E0C4
:1004EC00EFD392C083D410F089D408F00CC04ED452
:1004FC00E7E0F0E051D418F03FD451D4F9CFA2E3A7
:10050C00B2E0DED381C07AD410F080D408F00CC0F5
:10051C003DD4E8E0F0E040D418F02ED440D4F9CF2C
:10052C00ABE3B2E0CDD370C071D410F077D408F047
:10053C000CC02CD4E9E0F0E02FD418F01DD42FD44B
:10054C00F9CFA3E4B2E0BCD35FC068D410F06ED492
:10055C0008F00BC01BD472D41FD418F00DD41FD4C8
:10056C00FACFAAE4B2E0ACD34FC060D410F069D497
:10057C0008F00CC00BD4EBE0F0E00ED418F0FCD378
:10058C000ED4F9CFA0E5B2E09BD33EC05AD410F004
:10059C0060D408F00CC0FAD3ECE0F0E0FDD318F016
:1005AC00EBD3FDD3F9CFA5E5B2E08AD32DC051D45E
:1005BC0010F057D408F00DC0E9D3EDE0F0E0ECD327
:1005CC0018F0DAD3ECD3F9CFD7D3A9E5B2E078D3CE
:1005DC001BC047D410F04DD408F00CC0D7D3EEE0BC
:1005EC00F0E0DAD318F0C8D3DAD3F9CFACE5B2E047
:1005FC0067D30AC03ED440F0C9D3EFE0F0E0CCD3CF
:10060C0018F0BAD3CCD3F9CF69C3A8D3E8EEF3E092
:10061C0036D5E0934603F0934703A5D3E8EEF3E019
:10062C0066D5DF012ED42BD5E0934803F093490314
:10063C002BD4E0934A03F0934B0395D3FFD357D5B8
:10064C00E0934C03F0934D030DC388D31AD417D504
:10065C00E0934E03F0934F0317D4E0935003F093C1
:10066C00510381D3EBD343D5E0935203F09353035F
:10067C00F9C211D4EE81FF81309761F4EC81FD81D8
:10068C00309719F40BD4A0E203C008D4AC81A05D60
:10069C00FBD204C0AE8104D4AC8102D4AA8100D4B4
:1006AC00AEE2F2D2A881FCD328960895F4D3EC8163
:1006BC00FD81309771F4EA81FB81309721F4EED300
:1006CC00EDD3A0E204C0EAD3E9D3AA81A05DDCD2C9
:1006DC0005C0E4D3AC81E4D3AA81E2D3A881E0D3F2
:1006EC0026960895DFD3A1E0AED2EFE5EA93A09170
:1006FC003903B0913A037FDED8D3F0E0309711F58F
:10070C00C0904103D090420321D3D2D319F4AEE56B
:10071C00B2E00EC0D2D319F4A5E6B2E009C0D1D331
:10072C0019F4ACE6B2E004C0D0D319F4A3E7B2E0FC
:10073C00C7D2E6E0EA93A3E086D2AAE7B2E0C0D241
:10074C00D60140C0E130A0E0FA0751F4FFD2A5E891
:10075C00B2E0B6D2A52DBB27BCD3A1E9B2E02FC025
:10076C00ACD321F4F3D2A3E9B2E029C0AAD3E9F4C3
:10077C00EDD29ED329F4A4EAB2E0A2D2BCD314C029
:10078C009CD329F4A6EBB2E09BD2BCD30DC099D379
:10079C0029F4A8ECB2E094D2BCD306C096D321F4D1
:1007AC00AAEDB2E08DD2BCD30BC08FD361F4CED204
:1007BC00ACEEB2E085D2BAD38CD3A7EFB2E080D244
:1007CC00A4E6B0E032D40895AA936CD3B4D3AAEFC4
:1007DC00B2E076D2EDE0EA93AED3A2E0B3E070D211
:1007EC0061D3A2E030D224FC29C0A52DEAE0EA9F17
:1007FC003001A881D0DDEE0FFF1F66277727E0932D
:10080C003903F0933A0360933B0370933C03F30179
:10081C00A0913903B0913A0380913B0390913C0332
:10082C00662777270CD4DF01CB01EEEFF5E060E013
:10083C0070E038D482D3A5E0B3E00DC0E0913D0365
:10084C00F0913E0360913F037091400376D3AFEF7C
:10085C001BD2AFE0B3E034D2E7E0EA936CD376D3AB
:10086C00D4DEE0914603F091470375D3E091480341
:10087C00F091490370D3E0914A03F0914B036BD391
:10088C00A0914C03B0914D03F4DE53C204D325FE6A
:10089C0032C064D37BD2E2E0F0E07ED220F0AEE74F
:1008AC00F3D17DD2F8CFA0915403A13019F55AD3CE
:1008BC0010F4AAE012C056D310F059D308F002C0BD
:1008CC00AAE007C054D3B0F0AAE03DDDA0914603E6
:1008DC00A05D39DDA0914803A05D35DDA0914A03F0
:1008EC00A05D31DDAEE22FDDA0914C03A05D2BDDD0
:1008FC00A9E029DD04C032D3A7E1B3E0E1D1B2C154
:10090C00AA93F8D3EA81EE0FEE0FEE0FE0640E2FF0
:10091C0010E0183060F40A930395EC81FD81319658
:10092C00EC83FD833197A49189D11F5FF2CFE5D37E
:10093C0025960895AA93BA93EA93FA93EFB7EA939C
:10094C00E0E0E2BFE1E6E41519F4689425F823C071
:10095C00E2E6E41519F4E89425F81DC0E0E3E4158B
:10096C0021F417D25F01C7D216C0E1E3E41529F4D4
:10097C00E2E0F0E05F01C6D20EC0E2E3E41529F438
:10098C00E3E0F0E05F01C5D206C0E3E3E41519F43F
:10099C0022D25F01C5D2B19902C0EED209F412C0C5
:1009AC00B19902C0E9D209F401C0FACF7ED2EF5F4F
:1009BC00E0934503EED2A53010F0E0E001C075D213
:1009CC00E0934503E894B199689421F8E991EFBF5D
:1009DC00F991E991B991A99118950A921A92FA9202
:1009EC006A937A938A939A93AA93BA93EA93FA9313
:1009FC00EFB7EA93E0E0E4BDB29902C0CDD209F4BE
:100A0C0008C0B29902C0C8D209F401C0FACFE0E123
:100A1C002E26839902C0CDD209F431C0839902C02D
:100A2C00C8D209F401C0FACFB4D2A13051F4EAE033
:100A3C005E1AE4E15E1610F4ECE801C0E52D5E2EC2
:100A4C001EC0A7D2A33059F4F50131975F01A1D193
:100A5C00AE16BF0610F4BFD15F01B8D210C099D248
:100A6C00A43069F4BAD23197FE93EE93A09144036B
:100A7C00AA231AF4E6E3F1E001C0B4D2B8D2829909
:100A8C0002C0BAD209F43BC0829902C0B5D209F4B3
:100A9C0001C0FACF0AD2E03031F4A091550353DCF7
:100AAC00E0E22E262CC075D2A13051F4EAE05E0EA5
:100ABC00ECE8E51510F4E4E101C0E52D5E2E1FC055
:100ACC0068D2A33059F4F50131965F0184D1EA154F
:100ADC00FB0510F45ED15F0179D211C05AD2A4305B
:100AEC0071F47BD23196FE93EE9320D2A733E1E0E2
:100AFC00BE071CF0E0E0F0E001C074D278D2E894BC
:100B0C008299689422F8E8948399689423F8E8947D
:100B1C00B299689420F8E991EFBFF991E991B991F4
:100B2C00A9919991899179916991F990199009906C
:100B3C001895E6E0E8BBE1E0E7BBE0ECE5BBE0E301
:100B4C00E4BBECE0E2BBE0EFE1BBE2E0E3BFE0E002
:100B5C00E2BFE2BDE2E0E5BDE0E0E4BDE3BDE1E41F
:100B6C00E9BFE0E0EBB9E8E9EAB9E6E8E0BDE0E0CE
:100B7C00E0BDE8E0E9B9E0E0E7B9E6B1E168E6B983
:100B8C00A0E1AED07894E2E0EA93D5D1ABE1B3E04A
:100B9C0097D0E5E0EA93A1E056D0A7E2B3E090D07D
:100BAC00E2E0EA93A3E04FD0ADE2B3E089D0A4EC4D
:100BBC00B9E03BD259D0E6E2F0E0CDD1A0E0A0DE26
:100BCC00F7DBA1E001DE8EDDC1D160DEE1E0E09378
:100BDC005403A2E3B9D0F4CFFFCFAA93E881E0711C
:100BEC0011F0959A01C09598E881E07211F0949AF1
:100BFC0001C09498E881E07411F0AD9A01C0AD98F1
:100C0C00E881E07811F0AC9A01C0AC9885E08A9547
:100C1C00F1F7969A8DE08A95F1F796988DE08A9582
:100C2C00F1F787C0AA93A881D8DFE881E295E88321
:100C3C00A881D3DF85E88A95F1F77BC0AA93A981B7
:100C4C00F1DFE7D10FC0AA93E881F0E0E559FC4F42
:100C5C00E081A981AE0FE6DFE981E0936F03E881C3
:100C6C00E093700322960895A2E0DCDFA3E06CD041
:100C7C00ACE0D8DFA1E0D6DFA3E066D0E0E0E09303
:100C8C007003E0936F030895AA93A881AA3031F002
:100C9C00E0917103A0916F03AE1758F003D1A091AE
:100CAC007003AF5FA0937003CEDFA881AA3009F464
:100CBC0040C0E0916F03EF5FE0936F03AAD139C09E
:100CCC00EAD01A93A981BA81ED91A983BA831E2F18
:100CDC00E03019F0A12FD8DFF5CF188123960895B5
:100CEC00AA938D9A8C9AA59AA49A8E9AB89A8F9A4E
:100CFC009698C0989798E881E0937103E058E09338
:100D0C006D03E881E054E0936E03A4E11DD086D11D
:100D1C0085D184D1A0E261DF88EC90E00197F1F7F6
:100D2C00A8E280DFA4E07EDFA5E87CDFA6E07ADF26
:100D3C009BDF21960895AA93EA93FA93EFB7EA936F
:100D4C000895E0916A030895B0E06FC1E0E0EA9382
:100D5C00A3E079CF6AD1E0E24E2EF8CFBA93AA93F2
:100D6C00A881B9810895A881B9810895EA81FBDF32
:100D7C00F0E0AE17BF070895A0E086CFAA81E2E0AD
:100D8C00EA9FF001F0DFAE17BF070895882499247D
:100D9C000895E1E0F0E00895E815F9050895F401EF
:100DAC0031964F010895AA81E3E0EA9FF001DBDF61
:100DBC00AE17BF070895AA81E4E0EA9FF001D3DFE4
:100DCC00AE17BF070895AA81E5E0EA9FF001CBDFDB
:100DDC00AE17BF070895E4E0F0E00895AA81E6E0BD
:100DEC00EA9FF001C0DFAE17BF070895AA81E7E0C4
:100DFC00EA9FF001B8DFAE17BF070895AA81E8E0BB
:100E0C00EA9FF001B0DFAE17BF070895AA81E9E0B1
:100E1C00EA9FF001A8DFAE17BF070895AA81EAE0A8
:100E2C00EA9FF001A0DFAE17BF070895AA81EBE09F
:100E3C00EA9FF00198DFAE17BF070895EAE0F0E0F3
:100E4C000895AA81ECE0EA9FF0018DDFAE17BF0791
:100E5C000895AA81EDE0EA9FF00185DFAE17BF0788
:100E6C000895AA81EEE0EA9FF0017DDFAE17BF077F
:100E7C000895AA81EFE0EA9FF00175DFAE17BF0776
:100E8C000895E4E6F0E008956EDFFBDF30D1DF017A
:100E9C00D5DFF5D00895BA93AA930895A0E2F4CEC5
:100EAC00A05DF2CEE0E0EA930895E0914503089549
:100EBC00F501E130A0E0FA070895E230A0E0FA076E
:100ECC000895E330A0E0FA070895E430A0E0FA07B3
:100EDC000895BBDBE0914E03F0914F03FA93EA9334
:100EEC00E0915003F0915103FA93EA93A0915203CD
:100EFC00B0915303DBCBE0E9F1E0E0934103F093D5
:100F0C0042030895E4E8F3E0E0934103F0934203D5
:100F1C000895E8E0F7E0E0934103F093420308956D
:100F2C00E0E0E0934103E09342030895A091430372
:100F3C00B09144030895A0E086CEE0933D03F09376
:100F4C003E0360933F03709340030895A0913D03CB
:100F5C00B0913E030895FA93EA930895EDE0EA9375
:100F6C00A2E071CE00DFA436E0E0BE070895FBDE00
:100F7C00A83EE3E0BE070895A0E0B199A1E0E0E04F
:100F8C0021FCE1E0B0E0A7FDBFEFF0E0EA17FB07C2
:100F9C000895A09145030895A0E0B299A1E0E0E086
:100FAC0020FCE1E0B0E0A7FDBFEFF0E0EA17FB07A3
:100FBC000895A0E08399A1E0E0E023FCE1E0B0E03B
:100FCC00A7FDBFEFF0E0EA17FB070895EA2DE15CFF
:100FDC00E0935503A0915503B6C9A3E4B3E0ED919A
:100FEC00FD910895E0914303F09144030895E0933B
:100FFC004303F09344030895A0E08299A1E0E0E05C
:10100C0022FCE1E0B0E0A7FDBFEFF0E0EA17FB0740
:10101C000895C09AA88106DEC0980895A0E3DDDD8E
:10102C0088EC90E00197F1F70895109639F080ED77
:10103C0097E00197F1F7A8951197C9F708957A9F52
:10104C00702D6B9F700DF89F700DE99F700D6A9F4E
:10105C00602D710DFB9F600D711DE89F600D711D62
:10106C008827FA9FF02D610D781FEB9FF00D611D05
:10107C00781FEA9FE02DF10D681F781F089500245A
:10108C00112490E1AA0FBB1F001C111C0E1A1F0A81
:10109C0018F40E0E1F1E01C0A1609A9599F7FD0160
:1010AC00D00108953F934F935F930024112444275C
:1010BC00552730E2AA0FBB1F881F991F001C111C5B
:1010CC00441F551F0E1A1F0A460B570B28F40E0E01
:1010DC001F1E461F571F01C0A1603A9559F7FD010D
:1010EC00BC01D001CA015F914F913F910895C7DFB8
:1010FC00FD0108951A930A930895198108810895A2
:00000001FF
